:020000040800F2
:1000000000000220194C01085D4C01085D4C0108FC
:100010005D4C01085D4C01085D4C01085D4C010818
:100020005D4C01085D4C01085D4C01085D4C010808
:100030005D4C01085D4C010811480008F1490008B9
:10004000D90C0008DD0C0008E10C0008E50C0008E4
:10005000E90C0008ED0C0008F10C0008F50C000894
:10006000F90C0008FD0C0008010D0008050D000842
:10007000090D00080D0D0008110D0008150D0008F0
:10008000190D00081D0D0008210D0008250D0008A0
:10009000290D00082D0D0008310D0008350D000850
:1000A000390D00083D0D0008410D0008450D000800
:1000B000490D00084D0D0008510D0008550D0008B0
:1000C000590D00085D0D0008610D0008650D000860
:1000D000690D00086D0D0008710D0008750D000810
:1000E000790D00087D0D0008810D0008850D0008C0
:1000F000890D00088D0D0008910D0008950D000870
:10010000990D00089D0D0008A10D0008A50D00081F
:10011000A90D0008AD0D0008B10D0008B50D0008CF
:10012000B90D0008BD0D0008C10D0008C50D00087F
:10013000C90D0008CD0D0008D10D0008D50D00082F
:10014000D90D0008DD0D0008E10D0008E50D0008DF
:10015000E90D0008ED0D0008F10D0008F50D00088F
:10016000F90D0008FD0D0008010E0008050E00083D
:10017000090E00080D0E0008110E0008150E0008EB
:04018000190E00084C
:1001840010B5054C237833B9044B13B10448AFF3CD
:1001940000800123237010BD040200200000000031
:1001A40054890108084B10B51BB108490848AFF33E
:1001B40000800848036803B910BD074B002BFBD02F
:1001C400BDE81040184700BF0000000008020020EE
:1001D400548901080402002000000000324B002072
:1001E400196810B441F001011960986019682F4C26
:1001F40021F0847121F4803119605C60196883B046
:1002040021F480211960D8600090019019681A4681
:1002140041F48031196003E0009BB3F5A06F09D06D
:10022400136803F400330193009B01330093019B93
:10023400002BF1D01C4B1B6813F4003318BF0123AF
:100244000193019B012B06D0194B4FF000629A6079
:1002540003B010BC7047144B164819469A689A604C
:100264009A6842F400429A609A6842F480529A6012
:1002740058601A6842F080721A600B680A4A9B013F
:10028400FBD540F2037011460B4B1860936823F0C2
:1002940003039360936843F0020393608B6803F055
:1002A4000C03082BFAD1CFE70038024010300024A9
:1002B40000ED00E0183C4005003C024010B41A4C2C
:1002C400A36803F00C03042B23D0082B0AD0174B8C
:1002D400154A1749926810BCC2F303128A5CD340D2
:1002E4000B617047636861685B0201F03F0212D4DE
:1002F4000E496368B1FBF2F1C3F3881301FB03F207
:10030400094B5B68C3F3014301335B00B2FBF3F3B6
:10031400DEE7084BDCE707486368B0FBF2F1C3F3A0
:10032400881301FB03F2EBE7003802400024F400D9
:100334000000002000366E01094C08B52646094B22
:1003440001225A70002594F8DC313220032B04BFBB
:1003540086F8DC5186F87D5200F01CFCF3E700BF00
:10036400004D00202471002070B58CB001F086FC93
:1003740001F02EFF00F02AF91C4BFF2283F87D22A6
:1003840000F0EEF800F0D8F84FF4FA7000F002FC38
:10039400174E03F093F90BF053FA642000F0FAFBC4
:1003A4000DF12E0500234FF440704C210722032445
:1003B4000390029100920196089507940693059381
:1003C40004930C4A0C490D4806F01EFE01F048FE49
:1003D40001F04CFEFA2000F0DDFB01F035FE01F0E7
:1003E40039FEFA2000F0D6FBF0E700BF004D0020F4
:1003F400145000200504000828620108605E0020F3
:1004040008B500F053FDFCE7F0B50C4D0C4E2F463B
:1004140083B0002495F8DC310DF10601022B4FF076
:10042400000004BF87F8DC4187F87D42347006F091
:100434002DFF322000F0AEFBECE700BF004D0020A2
:100444002471002000B5064B83B000220DF1060193
:1004540004481A7006F01AFF03B05DF804FB00BFED
:1004640024710020145C002070B50D4E8CB0002364
:100474000DF12E0503244FF4007033211E22039046
:1004840002910092019608950794069305930493AC
:10049400044A0549054806F0B7FD0CB070BD00BF1D
:1004A40000AA00200D04000840620108145C00202A
:1004B400014B00229A70704724710020014B0122E5
:1004C4009A7070472471002000B5064B83B0002257
:1004D4000DF1060104485A7006F0D8FE03B05DF829
:1004E40004FB00BF247100203CA5002070B50D4E14
:1004F4008CB000230DF12E0503244FF4007033213A
:100504002022039002910092019608950794069385
:1005140005930493044A0549054806F075FD0CB09B
:1005240070BD00BF245F00203D0300085462010831
:100534003CA50020704700BF08B54FF4E13001F03E
:10054400C5FC00F073FE00F00FFF00F03FFE00F06A
:10055400ADFE00F0CDFE00F0ABFC002008BD00BFF6
:1005640008B500F0A5FBBDE8084001F057BD00BF89
:10057400012110B5402008F053FC0E4B19461A68AF
:1005840042F008021A601A6842F004021A604B68CA
:10059400084ADB07FBD594681368002123F008039D
:1005A40013601368402023F00403136008F038FC40
:1005B400204610BD0008065000B585B0684608F016
:1005C400A3FB019805B05DF804FB00BF00B585B03E
:1005D400684608F099FB054B01981B68B0FBF3F0E3
:1005E40004F016FA05B05DF804FB00BFCC60010806
:1005F4002DE9F0434FF6FB79012183B00846A54D60
:1006040008F01CFC01217A2008F0FCFB0026802362
:100614004FF00108022769469F4800938DF8047043
:100624008DF805708DF806608DF8078008F0F2F9F2
:10063400694628468DF804708DF805708DF80660BB
:100644008DF80780CDF8009008F0E4F9314628468B
:100654000C2208F071FA414628460C2208F06CFA84
:1006640028460C22032108F067FA28460C220421AC
:1006740008F062FA28460C22052108F05DFA2846A3
:100684000C22062108F058FA28460C22072108F00B
:1006940053FA28460C22082108F04EFA28460C2268
:1006A400092108F049FA28460C220A2108F044FAE4
:1006B40028460C220B2108F03FFA0C22284611464A
:1006C40008F03AFA28460C220D21744C08F034FA4A
:1006D40028460C220E2108F02FFA28460C220F215E
:1006E40008F02AFA69462046CDF8009008F092F9FD
:1006F400314620460C2208F01FFA414620460C22BF
:1007040008F01AFA20460C22032108F015FA2046B4
:100714000C22042108F010FA20460C22052108F0CE
:100724000BFA20460C22062108F006FA20460C2279
:10073400072108F001FA20460C22082108F0FCF9F0
:1007440020460C22092108F0F7F920460C220A2140
:1007540008F0F2F920460C220B2108F0EDF90C22E6
:100764002046114608F0E8F920460C220D2108F035
:10077400E3F920460C220E2108F0DEF920460C2273
:100784000F2108F0D9F94FF23F0304F5806469465C
:100794002046009308F03EF9314620460C2208F02A
:1007A400CBF9414620460C2208F0C6F939462046CA
:1007B4000C2208F0C1F920460C22032108F0BCF9F0
:1007C40020460C22042108F0B7F920460C2205210A
:1007D40008F0B2F90C222046114608F0ADF9204683
:1007E4000C220D2108F0A8F920460C220E2105F553
:1007F400406508F0A1F920460C220F2108F09CF96D
:100804003F2369462846009308F004F931462846F8
:100814000C2208F091F9414628460C2208F08CF984
:10082400394628460C2208F087F928460C22032171
:1008340008F082F928460C22042108F07DF90C22E4
:100844002846052108F078F94025694620468DF8A8
:1008540004808DF805708DF806608DF807600095AA
:1008640008F0D8F82946204608F058F941F2100457
:1008740040F2044245F2100009494FF020431C6045
:1008840018605A600A601A6842EA08021A6003B0E3
:10089400BDE8F083000C0240000402400010024056
:1008A400040100A0F0B5012199B0084608F0C6FA89
:1008B4000121782008F0A6FA4FF63373984D0024EE
:1008C400022603272846694600938DF805708DF8A3
:1008D40004608DF806408DF8074008F09BF8214627
:1008E40028460C2208F028F928460C22012108F099
:1008F40023F928460C22042108F01EF928460C226C
:10090400052108F019F928460C22082108F014F9E9
:1009140028460C22092108F00FF928460C220A2146
:1009240008F00AF928460C220B2108F005F90C22DC
:100934002846114608F000F928460C220D2108F03B
:10094400FBF828460C220E2108F0F6F828460C2263
:100954000F2108F0F1F84FF6FB7305F58065694641
:100964002846009308F056F8214628460C2208F041
:10097400E3F828460C22012108F0DEF8394628461F
:100984000C2208F0D9F828460C22042108F0D4F8E7
:1009940028460C22052108F0CFF828460C2206210F
:1009A40008F0CAF828460C22072108F0C5F82846A2
:1009B4000C22082108F0C0F828460C22092108F06E
:1009C400BBF828460C220A2108F0B6F828460C2267
:1009D4000B2108F0B1F80C222846114608F0ACF8B7
:1009E40028460C220D2108F0A7F828460C220E21D7
:1009F40008F0A2F828460C220F2108F09DF84FF2C7
:100A04003F0305F5806569462846009308F002F81F
:100A1400214628460C2208F08FF828460C22012192
:100A240008F08AF8314628460C2208F085F8394641
:100A340028460C2208F080F828460C22042108F0ED
:100A44007BF828460C22052108F076F80C2228466B
:100A5400114608F071F828460C220D2108F06CF8B4
:100A640028460C220E2108F067F828460C220F2194
:100A740008F062F840F23F2305F580656946284690
:100A8400009307F0C7FF214628460C2208F054F8CB
:100A940028460C22012108F04FF8314628460C2242
:100AA40008F04AF8394628460C2208F045F828464A
:100AB4000C22042108F040F828460C22052108F0F5
:100AC4003BF828460C22092108F036F8012502AB30
:100AD4004FF0040E4FF480524FF4804109A81027C0
:100AE400CDF810E016931793149112920294039484
:100AF40006940794089409960A940B940E940D9402
:100B04000F94109411941394159405950C9707F071
:100B1400D3FC2946304607F04FFD19B0F0BD00BFA5
:100B2400000C0240012383F31388BFF34F8F054960
:100B3400054BCA6802F4E0621343CB60BFF34F8FE6
:100B4400FEE700BF00ED00E00400FA050B4910B514
:100B54000B680B480B4A002443F080730B6004605D
:100B6400136884B043F001036846136008F0CCF8BE
:100B7400019801F0DDF804B010BD00BFFCED00E009
:100B8400041000E0001000E0014B1868704700BF3B
:100B9400041000E0D8B12DE9F041044640F2E738F2
:100BA40084B00DF10E0700264445254628BF45466E
:100BB4000022641B8DE8C0002B4611461046A4B2E7
:100BC40006F09EFF002CEFD104B0BDE8F081704721
:100BD400B8B1F0B5044685B00DF10E0700262546E0
:100BE4003B2C28BF3B2500238DE8C0002A4619462C
:100BF4001846641B06F084FF14F0FF04EFD105B01F
:100C0400F0BD7047704700BF704700BF38B5044659
:100C140000F0AEFD054602F029FF284600F0ACFDC9
:100C2400502C04D8044B53F8243003B19847BDE842
:100C3400384002F02BBF00BF20020020704700BFE5
:100C4400502800D970471030C0B200F0DBBD00BF9F
:100C540000F08ABD502800D970471030C0B200F0AF
:100C64003FBE00BF502800D9704738B50D46044632
:100C740000F07EFD034B43F82450BDE8384000F0FB
:100C84007BBD00BF20020020502800D9704770B5FA
:100C94000D46044600F06CFD064604F11000C0B297
:100CA400294600F0C1FE3046BDE8704000F064BD46
:100CB40070B5064C064E04F5A27500F059FD44F8D3
:100CC400046F00F059FDAC42F7D170BD1C02002046
:100CD4000D0C0008002099E7012097E7022095E712
:100CE400032093E7042091E705208FE706208DE792
:100CF40007208BE7082089E7092087E70A2085E792
:100D04000B2083E70C2081E70D207FE70E207DE791
:100D14000F207BE7102079E7112077E7122075E791
:100D2400132073E7142071E715206FE716206DE791
:100D340017206BE7182069E7192067E71A2065E791
:100D44001B2063E71C2061E71D205FE71E205DE791
:100D54001F205BE7202059E7212057E7222055E791
:100D6400232053E7242051E725204FE726204DE791
:100D740027204BE7282049E7292047E72A2045E791
:100D84002B2043E72C2041E72D203FE72E203DE791
:100D94002F203BE7302039E7312037E7322035E791
:100DA400332033E7342031E735202FE736202DE791
:100DB40037202BE7382029E7392027E73A2025E791
:100DC4003B2023E73C2021E73D201FE73E201DE791
:100DD4003F201BE7402019E7412017E7422015E791
:100DE400432013E7442011E745200FE746200DE791
:100DF40047200BE7482009E7492007E74A2005E791
:100E04004B2003E74C2001E74D20FFE64E20FDE692
:100E14004F20FBE65020F9E608B54FF4806007F058
:100E240011FBF8B94FF4006007F00CFBA0B94FF4C4
:100E3400805007F007FB08BB4FF4005007F002FB9B
:100E4400B0B94FF4804007F0FDFA00BB4FF4004006
:100E540007F0F8FA08BB08BD4FF40060BDE808408D
:100E640007F00EBB4FF48060BDE8084007F008BBF4
:100E74004FF40050BDE8084007F002BB01200CF01D
:100E840033FABDE808404FF4805007F0F9BA4FF444
:100E94008040BDE8084007F0F3BA4FF40040BDE8D5
:100EA400084007F0EDBA00BF00F0C4B800F026B95E
:100EB400704700BF2DE9F84300268946B0460F1F4E
:100EC400054628782C46013513F0F6FE0028F8D1A3
:100ED4002378E3B147F8044F2078013618B915E0B8
:100EE40014F8010F90B113F0E7FE0028F8D023782E
:100EF40063B1102E84F8008004F10100E0D1314682
:100F0400054813F037FF3046BDE8F883002349F85D
:100F140026303046BDE8F8836C6201082DE9F041C3
:100F24008846044613F06EFE90B30025032D29462F
:100F34004FF040074FF0240E04F10106237800F12E
:100F4400FF3217D05C2B36D0012D40D0022D24D196
:100F5400292B50D07D2B4ED01946344610460225FD
:100F6400A2B1002F5AD0032D04F10106237800F119
:100F7400FF32E7D1272B3CD088F80030013F1946D7
:100F840008F1010834461046002AEAD1002F45D062
:100F9400002388F80030BDE8F081272B35D0242BBE
:100FA40041D088F80030013F194608F10108344661
:100FB40010460025D4E75C2922D00238002AE5D067
:100FC400012D19460246637804F10206BED1282B8E
:100FD400C2D07B2BC0D0012F88F800E01CD088F849
:100FE4000130023F194608F1020834461046002534
:100FF400B6E75C29C0D01946344610460025AFE751
:10100400012DE8D0022DA7D0CBE75C29C9D0194621
:10101400344610460325A3E708F10108002308F825
:10102400013CBDE8F0815C29BBD01946344610462A
:10103400012595E770B50446B4B001230E4602932A
:1010440000F08CFB002C4ED02378002B4BD0204694
:1010540013F0D8FD3F284ADC214603A813F042FFD1
:1010640003A80378002553B30446002204E03B2B75
:101074000FD014F8013FA3B1272B03D0002AF6D0D8
:101084000122F6E714F8013C5C2BF2D082F0010255
:10109400EFE7A042EDD014F8013C5C2BE9D02270BC
:1010A400013413A9FFF73AFF23A913A8FFF702FF9E
:1010B40048B94FF0FF3520460378002BD4D195B9B9
:1010C400029834B070BD00230146009323AA02ABFA
:1010D400304600F077FA002818BF4FF0FF3500F0D3
:1010E40037FB0028E7D04FF0FF3034B070BD024822
:1010F40013F0F0FEF7E700BF8C62010810B50F484B
:101104000CF03CFD00280EDD0D4941220D4813F082
:10111400F1FE00210B4C2046FFF7C6FE0028DCBF81
:101124000023237010BD431C04D1BDE810400648C1
:1011340000F098BAB0FA80F14909EBE7A46201081B
:1011440058F0002064030020B0620108017801B364
:1011540038B5441C002502E014F8011B51B10A29DA
:10116400FAD104F8015C037843B9204614F8011B52
:101174000029F4D1037843B9002038BD0021FFF7DA
:1011840059FF0028F1DA012038BDFFF753FFC00FE3
:1011940038BD0020704700BF022A0FD108B5586837
:1011A4001022002113F052FF014606480A6813F08A
:1011B400E1FD054813F0DEFD002008BD4FF0FF30CF
:1011C400704700BFC0620108EC64010800B5074A1B
:1011D400074B83B0019200930022064B102106486E
:1011E40000F0E0F803B05DF804FB00BFD062010832
:1011F400286301089D1100083C7801082DE9F0419D
:1012040082B00E4617469846054600F0C5F80446D7
:1012140000F0C6F8CDF804800146009733462A460C
:10122400204600F03BF902B0BDE8F08110B50C494E
:101234000C4C0D4A82B023460191009210210022E9
:101244000A4800F0AFF80A490A4A0191009223467D
:1012540000221021084800F0A5F802B010BD00BF1C
:101264005463010801120008B86301084C630108C3
:1012740044650108DC630108D8630108032A38B512
:101284000FD15868102200211C4613F0DFFE1022F3
:1012940005460021A06813F0D9FE002328601846F3
:1012A40038BD4FF0FF33184638BD00BF00B5074ABC
:1012B400074B83B0019200930022064B102106488D
:1012C40000F070F803B05DF804FB00BFD0620108C1
:1012D4002863010881120008F063010808B5034877
:1012E40013F048FDFFF71EFC002008BDF46301085D
:1012F40000B5074A074B83B0019200930022064BC6
:101304000121064800F04EF803B05DF804FB00BF6D
:101314004465010814640108E11200080C64010822
:1013240008B50949094813F025FD0949094813F08E
:1013340021FD094A09490A4813F01CFD094813F024
:1013440019FD002008BD00BF30640108386401089D
:10135400506401085C640108746401088064010835
:101364008C640108EC64010800B5074A074B83B09C
:10137400019200930022064B1021064800F012F857
:1013840003B05DF804FB00BFD062010828630108C4
:1013940025130008A464010800487047A80300202E
:1013A40020207047F0B40D4EB6F880431F2C12D89D
:1013B400C4EBC407BF00F519EB60049B01342B6137
:1013C400059BF05100206960AA606B61A6F8804318
:1013D400A861F0BC70474FF0FF30FAE7A803002083
:1013E40090B32DE9F84315468846074613F00AFCE6
:1013F400C5EBC50508EB8505A845064621D044463E
:101404004FF0000902E01C34AC4211D0324621688E
:10141400384613F084FD0028F5D1206813F0F2FB60
:1014240086420BD0A0461C34AC4209F10109EDD12F
:10143400B9F1010F05D14046BDE8F8832046BDE867
:10144400F8830020BDE8F88300207047202201497A
:10145400FFF7C6BFA803002010B504460B48226955
:10146400216813F087FC2168094813F083FC606944
:1014740030B113F02FFD074813F02CFD012010BDEF
:10148400054813F027FD012010BD00BFA864010822
:10149400B4640108EC640108C06401082DE9F84350
:1014A400DDF820900546B9F1010F88461FD039DDDB
:1014B400099E0027012406E0FFF7CEFF0134A14571
:1014C40047EA000710D04246294656F8040FFFF7B2
:1014D40087FF0028F0D131681448013413F04AFC26
:1014E400A1454FF00107EED13846BDE8F883002945
:1014F40018DD00F1100400250AE00D4826B133463A
:1015040054F8102C13F036FCA84504F11C0409D03F
:10151400266800F0B1F8013508210028EDD001203B
:10152400BDE8F8830020BDE8F88300BFF06401083B
:10153400E46401082DE9F0410C46A6B01F4913F0FC
:1015440057FB18B1002026B0BDE8F08106462046BE
:1015540013F058FB21461A4813F0C4FCB046184D4A
:1015640001AF28782C46013513F0A6FB0028F8D1EA
:101574002078B0B1013647F8044B02E014F8010FAB
:1015840078B113F099FB0028F8D023784BB1102ED2
:1015940084F8008004F101054FF00003E1D11193B8
:1015A400D0E726AB03EB86030022012E43F8942CEC
:1015B400C8DC072013F02CFC0120C4E7A462010856
:1015C4002C0700202DE9F041154680460E46106890
:1015D400124920221F46FFF703FFB8B143680446AF
:1015E400B3420DDB2B4632464146C568A8473A68EC
:1015F400A36840B213403B60431C01D0BDE8F081B6
:101604002046FFF729FF40B2BDE8F081296804486D
:1016140013F0B0FB0120BDE8F08100BFA803002057
:101624004C6501084A1C00D009B90846704708B542
:101634000A460168024813F09DFB012008BD00BF63
:101644007065010800F0D4BC00F0E0BC00B583B0C4
:1016540002AB03F8010D1846012100F0A5FC03B00C
:101664005DF804FB10B5044613F0CCFA014620469D
:10167400BDE8104000F098BC38B5094D2C6814B191
:101684000024204638BD00F0C1FC0028F8D000F04A
:10169400AFFC0328F5D101231C466B60F1E700BFC2
:1016A4007007002070B584B001E000F0A1FC00F0E8
:1016B400ADFC0028F9D102AC0DF10D0600F098FC48
:1016C4002546C3B201210DF106008DF8063004F859
:1016D400013B00F069FC2B780D2B01D0B442EDD115
:1016E40004A80A2300F8093D012100F05DFC022250
:1016F4000F4902A813F013FC10B9012004B070BD07
:1017040002220C4902A813F00AFC0028F5D0042296
:10171400094902A813F003FC0028EED002A8042211
:10172400064913F0FCFBB0FA80F04009E6E700BF7D
:10173400906501089465010898650108A065010891
:10174400024B1A6818601046704700BF70070020EB
:10175400014B5868704700BF70070020014B0022FE
:101764005A6070477007002072B6704762B67047BF
:10177400EFF3108072B6704780F31088704730BF63
:10178400704720BF7047B0FA80F0704790FAA0F01D
:10179400B0FA80F0704790FAA0F070470B4B00F15C
:1017A40060429A420AD900F140429A4205D8400167
:1017B40000F18440002340F821307047400100F1DB
:1017C4000850002340F82130704700BFFFFF0F008E
:1017D4000B4B00F160429A420AD900F140429A420E
:1017E40005D8400100F18440012340F821307047BE
:1017F400400100F10850012340F82130704700BF38
:10180400FFFF0F0038B50F2836D8DFE800F00808CE
:1018140008081F2A0908080808080808081438BD19
:10182400FFF7A6FF2A4A136823F480231360BDE858
:101834003840FFF7A1BFFFF79BFF264A136823F048
:1018440001031360BDE83840FFF796BFFFF790FF30
:101854001F4A136823F480331360BDE83840FFF750
:101864008BBFFFF785FF1A4A136823F40033136014
:10187400BDE83840FFF780BF174B04461B680133AF
:1018840003F01F035B011033DBB29842C7D2A0F10F
:101894001005FFF76DFF2B46002DB8BF04F10F03B1
:1018A4000E4A5B1103F138232A406033002A4FEAC1
:1018B400830308DBD2B2012101FA02F21A60BDE807
:1018C4003840FFF759BF013A62F01F020132F1E7D5
:1018D40024ED00E010E000E004E000E01F000080E0
:1018E40038B50F2836D8DFE800F0080808081F2AA2
:1018F4000908080808080808081438BDFFF738FF65
:101904002A4A136843F480231360BDE83840FFF784
:1019140033BFFFF72DFF264A136843F0010313601A
:10192400BDE83840FFF728BFFFF722FF1F4A1368BE
:1019340043F480331360BDE83840FFF71DBFFFF761
:1019440017FF1A4A136843F400331360BDE83840A4
:10195400FFF712BF174B04461B68013303F01F0344
:101964005B011033DBB29842C7D2A0F11005FFF738
:10197400FFFE2B46002DB8BF04F10F030E4A5B1186
:1019840003F138232A404033002A4FEA830308DB5B
:10199400D2B2012101FA02F21A60BDE83840FFF721
:1019A400EBBE013A62F01F020132F1E724ED00E0E0
:1019B40010E000E004E000E01F0000800F2828D9B8
:1019C40038B5174B1B68013303F01F035B01103359
:1019D400DBB2984200D338BDA0F110050446FFF7EE
:1019E400C7FE2B46002DB8BF04F10F030D4A5B114F
:1019F40003F138232A40A033002A4FEA830309DB8A
:101A0400D2B2012101FA02F21A60BDE83840FFF7B0
:101A1400B3BE7047013A62F01F020132F0E700BF23
:101A240004E000E01F00008070B504460846FFF79C
:101A3400B2FE050E0F2C09D8DFE804F012121212C0
:101A4400202C3912121212464A124E13374B1B68BD
:101A5400013303F01F035B011033DBB29C423FD31D
:101A640070BDFFF785FE324A136823F07F4343EAD3
:101A740005651560BDE87040FFF77EBEFFF778FE90
:101A84002C4A136823F0FF031D431560BDE8704022
:101A9400FFF772BEFFF76CFE264A136823F47F43F8
:101AA40043EA05251560BDE87040FFF765BEFFF702
:101AB4005FFE204A136823F47F0343EA054515605B
:101AC400BDE87040FFF758BEFFF752FE1A4ACBE755
:101AD400FFF74EFE164AD4E7FFF74AFE144AE9E739
:101AE400A4F11006FFF744FE3246002EB8BFA4F15D
:101AF4000D02124B02F47F7202F16042334002F590
:101B04006442002B11680CDBDBB2DB00FF249C4039
:101B14009D4021EA04031D431560BDE87040FFF7B2
:101B24002BBE013B63F003030133EDE704E000E067
:101B340020ED00E018ED00E01CED00E00300008063
:101B440038B50F2809D8DFE800F0133415505318BE
:101B54002513131313404813372C394B04461B68C1
:101B6400013303F01F035B011033DBB2984247D308
:101B7400344838BD6FF0010038BDFFF7F9FD324B32
:101B84001C68C4F30724FFF7F7FD2046FFF703FEA4
:101B9400000E38BDFFF7ECFD2B4B1C68C4F3074463
:101BA400F3E7FFF7E5FD294B1C68240EFFF7E4FD7E
:101BB400EBE76FF0020038BDFFF7DAFD234B1C683A
:101BC400C4F30744FFF7D8FDDFE7FFF7D1FD204B4F
:101BD4001C68240EFFF7D0FDD7E7FFF7C9FD1B4BA8
:101BE4001C68E4B2FFF7C8FDCFE74FF0FF3038BD03
:101BF400FFF7BEFD144B1C68E4B2FFF7BDFDC4E75C
:101C0400A0F11005FFF7B4FD2B46002DB8BFA4F1D9
:101C14000D0303F47F7303F1604303F564431C680D
:101C2400FFF7AAFD0B4B2B40002B04DBDBB2DB00E0
:101C3400DC40E4B2A9E7013B63F003030133F5E7B9
:101C440004E000E00080FFFF18ED00E020ED00E07C
:101C54001CED00E003000080FEE700BF10B5FFF7B5
:101C640087FD04461021044800F0D6FA2046BDE85A
:101C74001040FFF781BD00BFC8B2002008B5044B77
:101C840000221A60FEF762FFBDE80840FFF7E6BFD6
:101C9400C4B2002089B188B170B50C460546FFF77F
:101CA40067FD064610220749284601F01BFB304613
:101CB400FFF762FD0023238070BDFEE70A230B803B
:101CC400704700BFC8B2002061B160B170B50C4666
:101CD4001021054601F0EEFA0F2807D94FF47A7364
:101CE400238070BDFEE70A230B807047FFF740FD99
:101CF400064629461022044801F0F4FA3046FFF75C
:101D04003BFD0023238070BDC8B20020FEF73CBF1A
:101D1400704700BF034640B1044A1068002814BF4E
:101D240000224FF4FA621A807047FEE7C4B2002022
:101D3400014B1860704700BFC4B2002008B5FFF71C
:101D440022FD183808BD00BF08B5FFF71CFD103888
:101D540008BD00BFFFF717BD012908BF00280DD338
:101D6400B1F5803F08BF002823D3B1F1807F08BFBD
:101D74000028204A27D30B0ED05C7047002908BFE7
:101D8400B0F5803F0BD3002908BFB0F1807F23D387
:101D9400030E184A43EA0123D05C2030704700291F
:101DA40008BFB0F5807F1ED2124B1844007838303B
:101DB4007047B1F5807F08BF002808D30D4A0B0A8D
:101DC400D05C103070470B0CD05C08307047094B66
:101DD4000B44187818307047030C064A43EA014351
:101DE400D05C28307047030A024A43EA0163D05C9E
:101DF40030307047F85E010808B908207047FFF7D3
:101E0400C5BC00BF08B910207047FFF7BFBC00BFB6
:101E140008B920207047FFF7B9BC00BF08B550EAE5
:101E2400010301D1402008BD424261EB410310404F
:101E34001940FFF791FFC0F13F0008BD10B5094CF0
:101E440040F22551A06907F0DBFA00B910BDA06982
:101E540040F2255107F0F8FABDE8104002480BF0B3
:101E6400ADBC00BF78070020D8B2002008B5084BED
:101E74000122986940F2255107F09CFA4720054950
:101E8400FEF7F0FEBDE808404720FEF7E3BE00BFC2
:101E940078070020411E0008704700BF03490B88E3
:101EA400024A5B06FBD5C3B293807047001401401D
:101EB40008B52021044807F099FA0028F9D002480F
:101EC40007F0D6F908BD00BF001401402DE9F04128
:101ED40088B06E46264C274B00254FF0020E4FF07B
:101EE4000108802284F814E084F815E0A57584F8CC
:101EF4001780E0612261A36104F110070FCF0FC6C0
:101F04001D4B0C22E28425846584A584258540220A
:101F140084F80CE084F80DE0A260A57384F80F80C7
:101F240097E807002360636086E8070094E80F00E1
:101F34000BF0ACFCFFF79AFF104B114C18462946E6
:101F44002022236012F00EFF2A460E490E486560D7
:101F5400A5600BF023FC42460C490D480BF01EFC17
:101F64002A460C490C4808B0BDE8F0410BF016BCF9
:101F74007807002000140140000802400CB3002040
:101F840000B30020A86501088CB30020B8650108DF
:101F94009CB40020D0650108D8B20020012802D0EA
:101FA4004720FEF74DBE61E770B505460E46084C66
:101FB400002120460BF014FC064B32462946986952
:101FC4000BF0C8FC2046BDE870400BF0F7BB00BF27
:101FD4009CB400207807002010B5044C62680A60A5
:101FE400216812F0B4FE0023636010BD00B300202A
:101FF40008B5002103480BF0F3FB034B98690BF081
:10200400BDFC08BDD8B200207807002008B5024BFB
:1020140098690BF0B5FC08BD7807002030B5094D70
:1020240083B00024234628460094012210210BF09B
:10203400A7FA009423462846012220210BF0A0FA97
:1020440003B030BD00140240102101480BF0D0BA97
:1020540000140240202101480BF0CABA00140240C7
:10206400102101480BF0C2BA00140240202101489B
:102074000BF0BCBA001402401021014806F058BD10
:10208400001402402021014806F052BD0014024011
:1020940082698A421DD8C3698B421AD370B4456BD6
:1020A400B2FBF5F305FB132303B1EB1A046BB4FB8A
:1020B400F5F605FB164070B90546D018091A28191B
:1020C400B1FBF0F370BC00FB1310B0FA80F04009D0
:1020D4007047002070472D1AEFE700BF70B4B0FBC3
:1020E400F3F404FB1300B2FBF3F403FB142438B140
:1020F400181A04B11C1B10180ED3002070BC7047B2
:10210400002CF7D14D1E02FB05F5012902EB050356
:1021140015D870BC184670478242EED8A6184D1EDA
:1021240006FB05F5012905EB0003F2D9B442E4D816
:10213400B242E2D8AE42E0D8AC42DED804E0AA42D1
:1021440001D92046DAE71046AA42D6D85419D4D287
:10215400A242D2D89842D0D89D42CED89C4294BFB5
:1021640018460020CAE700BF30B441EA012541EA1D
:10217400052510F0030341EA05250CD04AB1C3F14B
:102184000403034401E098421ED0013A00F8011B05
:10219400F9D130BC7047032A0DD913460446043BD9
:1021A400032B44F8045BFAD8131F23F0030304330E
:1021B400184402F00302002AEBD0024400F8011B89
:1021C4008242FBD130BC7047032AE6D8F5E700BF52
:1021D40030B40D4B0D4D0E4C0E4800224FF41051EF
:1021E4001D6023605B609A60DA601A615A619A61CB
:1021F400DA611A621A63DA625A629863D8631964FC
:10220400596430BC704700BFC4B4002048454150F5
:102214000CD900200CB5002019B110B10A460021D8
:10222400A2E770470AB100B19EE77047002A50D078
:10223400F0B5054600B3F9B188424BD3501E0544AE
:1022440001446B1A032B14463AD905F0030201F03A
:1022540003039A4234D1032A0FD00B7801392B702F
:102264006B1E48B1D24315449D4207D011F8012991
:10227400013803F80129F7D1F0BD20460328A5F160
:102284000307A1F103032AD91A46061FB6084FEA29
:10229400860E6FF00604CEEB040401350C4452F8AC
:1022A4000419A24245F8041DF9D1B20082F00302D8
:1022B400D24310F00304174413440FD0FD1CD91C5F
:1022C4006B1C0A1B11F80109914203F8010DF9D1A5
:1022D400F0BD7047BDE8F04000F0E2BCF0BD04463C
:1022E400ECE700BFB2B1A0B1B1B110441144F0B4F5
:1022F40001F0030300F003059D4228D0121A10F8E0
:10230400014D11F8013D9C421FD1D042F7D101206B
:10231400F0BC70470120704708467047032AEDD986
:1023240050F8045C51F8044C043AA542A0F10400AE
:10233400A1F1040309D1032A194624D950F8044D04
:1023440053F8041D043A8C42F5D00020E0E7002D38
:10235400E4D010F8017C11F8016C0138B74201F1A6
:10236400FF3402F1FF33F0D1521B2146002BCED0B3
:102374009A4203F1FF33D1D010F8015D14F8011D26
:102384008D42F2D0E1E7002AB8D1C0E7F0B50546A6
:1023940085B00C4617461E46002B36D0002F38D089
:1023A40000233B60002D39D0002C46D0FFF7E0F924
:1023B400DFF8BCE0DEF83C30DEF84420B3FBF4F197
:1023C40004FB113159B1641A291947D3FFF7D4F921
:1023D40042F2E3733D600020338005B0F0BD9542C6
:1023E40031D80C46294613EB010C1DD2521A1C1984
:1023F400CEF84420CEF83CC016D0FFF7BDF942F227
:1024040010732046338005B0F0BDFFF725FC002F84
:10241400C6D103AF00233B60002DC5D142F27473D3
:102424002846338005B0F0BDFFF7A6F942F2E27307
:1024340000203D60338005B0F0BD42F27573204644
:102444003380CAE70D460192FFF796F942F2E27330
:10245400019AA81A386000203380BEE78D42B5D8AF
:102464008A42EFD313EB010C0D46DDD2BEE700BF69
:10247400C4B40020F8B504460E461546002A3DD0E3
:10248400731EB3F5805F04D342F2757300202B8072
:10249400F8BD74B3FFF76CF923681A4A01469342F6
:1024A4000ED002F17C7202F5FA3202F5FC7293420C
:1024B40006D0FFF761F942F2887300202B80F8BD43
:1024C4006368114A9C6B0846002C08BF13465C6C79
:1024D400DF6BFFF751F9012E06D0B7FBF6F306FBCD
:1024E400137101B1711A641A42F2107320462B80E1
:1024F400F8BD42F2117320462B80F8BDFFF7ACFB08
:10250400BEE700BF504F4F4CC4B400200A460146FA
:102514000148FFF7AFBF00BFC4B4002010B582B0BC
:10252400C9B100B342F21072114C0023046043603D
:102534008360C360036143618361C3610362836237
:1025440043630363C36243628363C3630364436497
:102554000A8002B010BD8DE80300FFF77DFB9DE803
:1025640003000028DED142F211730B8002B010BDCB
:102574004E4F4E452DE9F04F89B0159C06460F4647
:1025840090469946149DFCB115B300232B60214657
:102594003046FFF7C3FF42F2107322889A4202D0FA
:1025A40009B0BDE8F08F17B1B8F1000F06D0B9F14A
:1025B400000F0FD142F292732380F1E742F27E734F
:1025C400238009B0BDE8F08FFFF746FB002DDCD176
:1025D40007ADDAE7129B2BB1139B3BB942F294731C
:1025E4002380DDE742F293732380D9E7B54B1B6860
:1025F400002B00F08680FFF7BBF80090002F00F05E
:102604009A8008F1FF3179187FD2AE4BD3F800A03D
:10261400BAF1000F00F068810022DAF838309F42E6
:102624001AD09942C0F0B4809F4206D80098FFF7B0
:10263400A3F842F27F732380B2E7DAF84020013A2C
:1026440013449942F2D99F42F0D9DAF80C30524639
:10265400002B67D09A46E0E7DAF840309845E5D198
:10266400D346D0469246984B49461A46D26B0193BC
:102674000423104603921A46FFF730FD00284AD07F
:10268400019A526C9042049200F28580D8F83C3052
:10269400129A184605934946139BFFF71FFD0290B3
:1026A400002800F00781D8F84430029A9A4200F2D8
:1026B4000F81DDF810C0DDF80CE000221EF00301EC
:1026C4004FEA890373D0C1F10401C818604503912E
:1026D40003D80399814240F2098103939DE80900DC
:1026E40002925E6CFFF748F8029A039B002F00F0F9
:1026F4001C81B34288BF9B1B2B6042F2E273238090
:102704004EE742F2E77323804AE7FFF735F842F2D7
:102714009773238044E70098FFF72EF842F2E3739F
:1027240023803DE79B46C6F84080C6F84480B763E3
:10273400F763B04697E7DFF890B10423DBF83CA0D9
:102744001A4650464946FFF7C9FC80460028E2D0A5
:102754000AEB000305931846129A139B4946FFF7A8
:10276400BDFC02900028D6D0029918EB0102D2D207
:102774009142D0D8DBF84480424500F2CA80DFF8A9
:1027840048B1C446D646CDF804B0DA46D84695E7F3
:10279400D3469246C7E701900098FEF7EDFF42F258
:1027A400E2720499019B5B1A2B602280F8E6634570
:1027B40093D8184603911EEB000104918DD2019920
:1027C400C0EB0C0048640498C86303991EEB010134
:1027D400039182D0039BD8F84470A3F1040C002128
:1027E400019616E0774528D3724526D8764524D835
:1027F40013EB0E0021D2CEEB07079B18C8F84470E8
:10280400C8F83C0000F09A80013189454CF8043F37
:1028140028D0139AD8F83C30129EB3FBF2F002FB96
:102824001030121A06EB020E0028DBD1129ABA42BB
:1028340003D80246DDF848E0DAE71E460098019125
:10284400FEF79AFF0199139B129AC1EB09013046D6
:10285400FFF744FC42F2D873B84288BFC01B28601B
:1028640023809DE6019EB04544D0D8F81430C6F8C4
:1028740010807361C8F8146003B11E610299059851
:102884004B1E0344F361139B104AB06173630398B6
:10289400129B30623363C6F80480B162C6F82C9090
:1028A400C6F8249000983260FEF766FF42F2107377
:1028B400238075E60098FEF75FFF42F2D973238008
:1028C4006EE600BF0CD90020C4B40020504F4F4C1A
:1028D40000980193FEF750FF42F2D8720299019BCF
:1028E400CB1A2B6022805BE6D3461CE783423FF67B
:1028F400F4AE60E7C8F808A0C8F80CB0BAF1000F4D
:1029040018D0CAF80C80BBF1000FB7D0CBF8088000
:10291400B4E700980192FEF72FFF42F2E273019AA6
:10292400C8EB02022A6023803AE6B24288BF921BB7
:102934002A60E2E6024BC3F80080E4E706467DE73E
:102944000CD9002038B504460D46D1B1A4B1FEF728
:102954000FFF22680C4B9A4207D1646AFEF70CFF02
:1029640042F2107320462B8038BDFEF705FF42F279
:10297400887300202B8038BD42F2117320462B80CF
:1029840038BDFFF769F9E1E7504F4F4C70B5054684
:102994000C4616460AB3002D3ED0CCB1FEF7E8FE35
:1029A400204B2A689A421BD12B6B9C4226D86C6A16
:1029B4005CB3EB6A9C421AD82B6A013C6C6253F8F4
:1029C4002440FEF7D9FE42F210732046338070BDD6
:1029D40042F293732046338070BDFFF73DF9DAE786
:1029E400FEF7CAFE42F288730020338070BDFEF702
:1029F400C3FE42F295730020338070BDFEF7BCFE27
:102A040042F293730020338070BDFEF7B5FE42F2AC
:102A1400DE732046338070BD42F211732846338042
:102A240070BD00BF504F4F4CF8B504460F461546D5
:102A3400D2B154B3FEF79CFE164B22689A421DD1C4
:102A4400666AE26A964212D2531ED91B8A420ED992
:102A54008E420CD8236A53F82140FEF78DFE42F2D1
:102A6400107320462B80F8BDFFF7F6F8E1E7FEF778
:102A740083FE42F2957300202B80F8BDFEF77CFEA6
:102A840042F2887300202B80F8BD42F21173204675
:102A94002B80F8BD504F4F4C2DE9F04706460C46AD
:102AA4001546002A4AD0002E43D0002C41D0FEF710
:102AB4005FFE3C4B326807469A4233D1214630468A
:102AC400FFF7E6FA01283CD1726A002A60D0D6F8F2
:102AD40020E0DEF800309C423BD07146002303E046
:102AE40051F8040F844234D001339A42F8D1D6F815
:102AF4002CC0624544D202F101084FEA82095EF813
:102B040009A00EEB090154452BD001320EEB8203D0
:102B140005E0194608680433844222D00132624534
:102B2400F7D33846FEF728FE42F288732B80BDE8BF
:102B3400F08742F211732B80BDE8F087FFF78CF821
:102B4400B1E73846FEF718FE42F297732B80BDE8D2
:102B5400F0873846FEF710FE42F298732B80BDE8EA
:102B6400F087C1F800A0336A384643F80940C6F834
:102B74002480FEF701FE42F210732B80BDE8F0873B
:102B84003846FEF7F9FD42F2DD732B80BDE8F0878D
:102B9400D6F82CC0BCF1000FF2D08046D6F820E065
:102BA4009146ACE7504F4F4CF8B505460E461446D7
:102BB400B2B17DB176B1FEF7DBFD384B2A6807462A
:102BC4009A4210D0FEF7D8FD42F288734FF0FF30DE
:102BD4002380F8BD42F211734FF0FF302380F8BD1B
:102BE400FFF73AF8E5E731462846FFF751FA01289E
:102BF40008D03846FEF7C0FD42F297734FF0FF301D
:102C04002380F8BD6A6A002A40D0D5F820E0DEF8B7
:102C140000309E421ED07146002303E051F8040F99
:102C2400864217D001339A42F8D1EB6A9A421AD2FB
:102C340091005EF801108E4218BF0EEB820104D1A0
:102C44001AE051F8040F864216D001329A42F8D3A2
:102C54003846B7E73846FEF78FFD42F298734FF0D7
:102C6400FF302380F8BD3846FEF786FD42F2DD735F
:102C74004FF0FF302380F8BD013B38469D1AFEF724
:102C84007BFD42F2107328462380F8BDEB6A002BCB
:102C9400E9D0D5F820E01146CBE700BF504F4F4CA8
:102CA400002800D17047002900D17047002A00D1C4
:102CB40070472DE9F81F00F0030301F00304A34259
:102CC40011D1C3F1040303F00303012B1DD3012A23
:102CD40000D2F2E011F8014B00F8014BA3F101031B
:102CE400A2F10102F1E700F0010301F00104A342A3
:102CF40000D094E0012B44D311F8014B00F8014BB0
:102D0400A3F10103A2F10102F4E7B2F5B47F26D3E3
:102D1400B1E8F81FA0E8F81FB1E8F81FA0E8F81F11
:102D2400B1E8F81FA0E8F81FB1E8F81FA0E8F81F01
:102D3400B1E8F81FA0E8F81FB1E8F81FA0E8F81FF1
:102D4400B1E8F81FA0E8F81FB1E8F81FA0E8F81FE1
:102D5400B1E8F81FA0E8F81FA2F5B472D5E7282A55
:102D640006D3B1E8F81FA0E8F81FA2F12802F6E79D
:102D7400042A06D351F8043B40F8043BA2F10402B0
:102D8400F6E7202A42D331F8023B20F8023B31F81F
:102D9400023B20F8023B31F8023B20F8023B31F8B9
:102DA400023B20F8023B31F8023B20F8023B31F8A9
:102DB400023B20F8023B31F8023B20F8023B31F899
:102DC400023B20F8023B31F8023B20F8023B31F889
:102DD400023B20F8023B31F8023B20F8023B31F879
:102DE400023B20F8023B31F8023B20F8023B31F869
:102DF400023B20F8023B31F8023B20F8023B31F859
:102E0400023B20F8023BA2F12002BAE7022A06D3D1
:102E140031F8023B20F8023BA2F10202F6E7102A45
:102E240042D311F8013B00F8013B11F8013B00F8D3
:102E3400013B11F8013B00F8013B11F8013B00F89C
:102E4400013B11F8013B00F8013B11F8013B00F88C
:102E5400013B11F8013B00F8013B11F8013B00F87C
:102E6400013B11F8013B00F8013B11F8013B00F86C
:102E7400013B11F8013B00F8013B11F8013B00F85C
:102E8400013B11F8013B00F8013B11F8013B00F84C
:102E9400013B11F8013B00F8013B11F8013B00F83C
:102EA400013BA2F11002BAE7012A06D311F8013B53
:102EB40000F8013BA2F10102F6E7BDE8F81F7047F4
:102EC4002DE9F04F85B0DDF844809DF838909DF8E9
:102ED4003CB09DF84060B8F1000F00F0B8809A460D
:102EE400931E222B174604462CD9B9F1000F57D153
:102EF400012208EB010316B1002008F801005E1E50
:102F0400C9B10020CE46044681463F2301F1FF3C6F
:102F1400CDF804E0002A64D1002D65D1002C00F026
:102F2400A180BAF1010F74D0019808B13070013E4C
:102F34000134A142EED1002A40F08980404605B018
:102F4400BDE8F08FB1FA81F25209B9F1000F28D12E
:102F5400002ACDD1BC42C0F0828020460123B0FBC0
:102F6400F7F00133B842DBB2F9D21D46AAF10100F1
:102F7400B0FA80F040090544A94260DB8B4228BFC7
:102F84000B46B9F1000F5CD0CB1ADBB283426CD094
:102F9400A9F13003B3FA83F35B0902932546A8E74A
:102FA40001224846039101920CF0B4FB0128019AD6
:102FB40003999DD1B9F1300FCAD0BBF1010F14BFF1
:102FC400A9F14100A9F16100A9F130030A2FDBB294
:102FD400C0B240D9092B8BD9A7F10A03984287D3F1
:102FE400B6E73370013EA3E7B5FBF7FE07FB1E55BA
:102FF400EDB2092D04D830353570013E754697E79A
:10300400BBF1010F14BF373557353570013E754696
:103014008EE7029840B1644586D14FF02D004FF001
:1030240001093070013E83E7B9F1000F7FF47CAFF2
:103034004FF02D004FF001093070013E78E725462E
:1030440056E70344D9B2CDF80890254651E700204D
:1030540005B0BDE8F08F9F423FF64AAF78E70125FF
:103064002B4683E72546A646C5E70023029325465B
:103074003FE700BF2DE9F04F814685B017461D4656
:10308400002900F085808A460E9BCAF80090002B28
:1030940000F086800E9B00201870B9F1000F00F03C
:1030A4008980012F01D0242F02D905B0BDE8F08F0B
:1030B40099F800000CF024FB01284E4605D116F8BF
:1030C400010F0CF01DFB0128F9D034782B2C10D003
:1030D4002D2C73D1012D00F09C80082F00F0A680C8
:1030E400102F00F093800123B046019367B90A279B
:1030F4000AE00023747801930136082F66D0102F5C
:103104005FD0002F67D0B0464FF0000B5D462046DD
:103114000CF0BAFA012813D0BBF1010F0E9B08BFC3
:103124004FF0FF351A4646450CBF4E4646462846E4
:103134009DF80430CAF80060137005B0BDE8F08F44
:1031440020460CF0BBFA012816D1303CE4B2A74269
:10315400E2D9BBF1000F18D1364B53F82730AB42FC
:1031640013D305FB0745AC4294BF4FF0000B4FF05F
:10317400010B18F8014FCAE720460CF093FA012816
:103184000CBF573C373CE4B2E1E74FF0010BF0E7EA
:103194000E9B0DF10C0ACAF80090002B7FF47AAF55
:1031A4000DF10B030E930E9B00201870B9F1000F64
:1031B4007FF477AF484605B0BDE8F08F0023019354
:1031C4009BE7302C29D0B04610279DE7302C07D040
:1031D400B046082798E7302C06D0B0460A2793E774
:1031E40006F1010874788FE7747806F10108582C09
:1031F40001D0782CEDD1B0780CF06CFA012812BF14
:10320400747806F10208B47810277DE7012301934E
:10321400D9E77478019501366FE7747806F10108EF
:10322400582CE8D0782C7FF46FAFE4E701230193A6
:10323400CEE700BFF85F010840B330B4037853B160
:10324400441C02E02578013435B12346002CF9D121
:10325400002030BC704703460029F9D00C788CB1AB
:1032640082B103F8014B002BF2D00A444C1CEFD07E
:1032740011F8014F34B18A4204D003F8014B002BFA
:10328400F4D1E5E700221A7030BC70470020704783
:1032940060B1037863B1431C002004E013F8012BF0
:1032A40022B1421C03D00130002BF7D17047704784
:1032B4001846FBE778B103788BB171B1034600205F
:1032C400194404E013F8012F2AB18B4204D05A1C8C
:1032D40000F10100F6D1704770470846FBE7184635
:1032E400704700BF70B4A8B1A1B10B78ABB192B173
:1032F400044604F8013B6CB101234E42B34209D0A9
:1033040011F8015F55B1934205D004F8015B013314
:10331400002CF3D1002070BC704704469A42FAD9BD
:103324000023237070BC70474FF0FF32FFF7DABF01
:1033340018B111B14FF0FF327EE70020704700BF93
:1033440038B130B411B112B130BC75E7084630BCA5
:1033540070477047F2B118B3F1B1F0B40D78047846
:10336400471CAC4201F1010610D1BCB11FB3F6B148
:10337400002302E094B19A4217D017F8014B16F8D3
:10338400015B0133AC42F5D09A420ED0A4B2601B6B
:10339400F0BC704710467047007870472046F7E746
:1033A40039B10A78524210B270470020F0E74078F1
:1033B400EEE7084670471EB14A78524210B2E7E77A
:1033C4003046E5E74FF0FF32FFF7C4BFA2B32DE963
:1033D400F04790468946054600283CD00078A9B3BA
:1033E4000CF0BEF9824699F800000CF0B9F9824558
:1033F400564605F1010409F1010719D12B789BB355
:1034040094B38FB3002504E014F8013CB3B1A8458C
:1034140016D014F8010B0CF0A3F9064617F8010BAB
:103424000CF09EF9864205F10105EDD0A84507D0C0
:10343400301A00B2BDE8F08700207047A84502D1D9
:103444000020BDE8F087002EFAD020780CF088F92F
:1034540000B2BDE8F0870029F2D008780CF080F9BA
:10346400404200B2BDE8F087BAF1000FE8D0002C6A
:10347400EBD1002FE4D099F801000CF071F940422F
:1034840000B2BDE8F08700BF4FF0FF32FFF79EBFE8
:1034940070B1B9B130B40024054610F8013B43B112
:1034A400934206D0A1420BD001340028F4D130BCA1
:1034B4007047A14204D99A420CBF28460020F6E77F
:1034C4000020F4E7084670470A464FF0FF31FFF743
:1034D400DFBF00BF18B329B330B404460139002359
:1034E40014F8015B25B1994202D00133002CF7D1C5
:1034F400C31815D098420CD01978914210D05C1E94
:1035040002E01D7895420BD08442234604F1FF3437
:10351400F7D1187890420CBF1846002030BC704791
:103524001846FBE7084670470A464FF0FF31FFF79D
:10353400D1BF00BF60B1034630B4451E1C7834B11E
:10354400AB4204D0A14208BF1A700133F6D130BC9B
:10355400704700BF68B16BB170B40446C6182578D3
:1035640035B1A64204D08D4208BF22700134F6D191
:1035740070BC704718467047002840D000293DD0E1
:10358400002A3DD02DE9F843531C08BF16460446D3
:1035940018BF561C002314F8015B25B19A4202D0CF
:1035A4000133002CF7D10D46002415F8017B0FB32D
:1035B400A64202D00134002DF7D1A34217D3C51877
:1035C40020D00D191ED0804689461D1B002701E01E
:1035D400BD420CD308EB0706304622464946FFF7A6
:1035E400B9FE01370028F3D13046BDE8F883002046
:1035F400BDE8F883002CE0D1BDE8F88308467047A5
:10360400104670472846BDE8F88300BF4FF0FF32EC
:10361400FFF7B2BF70B584B09DF820609DF82450C8
:103624000A9C8DE84800029503940023FFF748FCA8
:1036340004B070BDF0B585B000289DF828409DF811
:103644002C500C9EB4BF012700278DE87800B8BF2A
:1036540040423B46FFF734FC05B0F0BD00B5002303
:1036640083B00093FFF706FD03B05DF804FB00BFD1
:1036740000B585B00DF10F0300930123FFF7FAFCA9
:103684009DF80F3033B90028B8BF6FF0004005B083
:103694005DF804FB0028ACBF40424FF0004005B089
:1036A4005DF804FB08B502E003480AF0BFFF09F027
:1036B400CDFD0028F8D108BD10D9002070B588B020
:1036C40009F00AFF0021084607F02CFF0E4A08AB58
:1036D4000E4C0F4D0F4943F8042D0F4E0022029556
:1036E4000191009205A906AA20466FF07F45059630
:1036F400069500F09DF8204600F0E8F8204600F01A
:10370400EBF808B070BD00BFC601030110D900205A
:1037140089B30008C9E60008C601039130B5084919
:1037240085B0C8694D698C6904AB43F8040D02AADD
:1037340001A904480195029400F06CF805B030BD6D
:10374400004D002010D9002010B5054C062221465A
:10375400044811F0FCFA2046BDE8104009F0D4BE3C
:10376400204D002033D90020704700BFC8B10E4B54
:1037740081781B683039C9B2A3B110B401E01B6869
:103784006BB193F82C208A42F9D1047893F82A205B
:103794009442F4D1447893F82B209442EFD110BC96
:1037A400184670471846704740D9002070B5044643
:1037B4000E4629B30B68426893421FD01349086828
:1037C40008B30368934205D0C06848B162680368CF
:1037D4009342F9D1C56806F075FD28460028F5D155
:1037E40032680B4B1B684BB1186820B16568A8425E
:1037F40004BF1A603268DB68002BF5D1626070BDCB
:103804000A46626070BD1A46EBE700BF40F0002034
:1038140048F0002070B514461D460646FFF7C6FF63
:1038240004B12468B46005B12D68F56070BD00BFB3
:103834002DE9F044079E04468A4617461D465EB3AA
:10384400DFF874E0069B089AE3619EF80030226179
:10385400002284F82C30514601336260A260E26099
:1038640084F8292020468EF80030FFF79FFF77B1B7
:103874003B68A36005B12D68E5602046B04740B9B8
:10388400094B20461A6822601C60BDE8F0843B4660
:10389400EFE70020BDE8F084044B8F22044905487B
:1038A40011F068FACCE700BF40D90020E0650108B8
:1038B400F46501080C660108A607002001B1096837
:1038C400C160704701B1096881607047014B18609D
:1038D400704700BF44D9002090F829300146DA0728
:1038E40007D443F0010203F03003302B80F8292081
:1038F40000D0704704310AF097BD00BF90F829301A
:10390400D90705D523F001019B0680F8291000D4BE
:1039140070470AF0E3BB00BF10B390F8293010B52C
:10392400DB07044619D40F4B1A6894420CD09AB1A1
:1039340013689C4207D02BB11A68944204D01346F2
:10394400002BF9D110BD134622681A60064B1A6881
:10395400944201D100221A6010BDFFF7CFFFE2E7C5
:10396400704700BF40D9002044D9002090F8293086
:103974000146DA0607D443F0100203F02103212B99
:1039840080F8292000D0704704310AF04DBD00BFF3
:1039940090F82930DA0644BF23F0100380F8293068
:1039A400704700BF704700BF38B5074D074CFDF79F
:1039B400DFFE2A682368013201332A602360FDF7A1
:1039C400DBFE00F055FFF2E740EF002080E9002025
:1039D400F8B5FDF7CDFE054601F0D8FE114B124AAD
:1039E40000EB400153F821301268104C1049934207
:1039F40020700B6011D00F4CD3F8902021680E4E2C
:103A04004FF08057013101322160C3F890202846DD
:103A14003760BDE8F840FDF7AFBE2846BDE8F84082
:103A2400FDF7AABE88E9002058ED00207CEC0020B8
:103A340064ED002080ED002004ED00E008B5FDF702
:103A4400A3F8074B074A1B681168C01A064B884243
:103A540088BF10601A68904288BF186008BD00BF14
:103A640054ED002054EF002068ED0020054B1B7836
:103A7400012B05D1044A1378F92B9CBF0133137031
:103A8400704700BF85E9002084ED0020F8B51C4B89
:103A94001B78012B00D0F8BDFDF76AFE194A0446D5
:103AA40013781BB3013BDBB21370FBB9164B1B78C5
:103AB400E3B901F06BFE154B154A00EB400153F8D6
:103AC40021301268134D1449934228700B6011D0B1
:103AD4002046124DD3F890202968114E013101324D
:103AE4004FF080572960C3F890203760BDE8F84054
:103AF400FDF742BE2046BDE8F840FDF73DBE00BFDD
:103B040085E9002084ED002074E9002088E9002084
:103B140058ED00207CEC002064ED002080ED0020B6
:103B240004ED00E0034B1B7813B9034B1B7803B17E
:103B340070474DE784ED002074E90020164B1B7894
:103B440083B9164B1B78012B03D045F68963038098
:103B5400704770B5124D2B78F92B07D945F209231C
:103B6400038070BD46F66253038070470446FDF738
:103B7400FFFD2B7806460133DBB2012B2B7005D0F9
:103B84003046FDF7F9FD0023238070BDFCF7FCFFF0
:103B9400044B1860F4E700BF84ED002085E90020A1
:103BA40074E9002054ED0020F8B5194D2B7873B951
:103BB400184B1B78012B03D045F689630380F8BDAD
:103BC400154E33783BB946F664530380F8BD46F688
:103BD40065530380F8BD0446FDF7CAFD33780746F4
:103BE400013BDBB233706BB9FFF728FF3846FDF7B2
:103BF400C3FD2B781BB933780BB9FFF7E9FE00231B
:103C04002380F8BDFDF7B8FD46F663532380F8BD65
:103C140084ED002085E9002074E9002070B5054694
:103C240016460C46FDF7A4FD012D0D4B1ABF0022CC
:103C34001A701D7064B90B4B0B491B680B4AA1FB2E
:103C44000313DB081360FDF797FD0023338070BD79
:103C5400064B1C60FDF790FD0023338070BD00BF50
:103C640030F00020CC600108CDCCCCCC28EF002073
:103C7400F8B50F4D2B781BB145F68A630380F8BD68
:103C8400044601F083FD0B4B00EB40010A4A53F854
:103C940021300A4F0A490B4E1070012233600B6029
:103CA40038702A7000F0A2FD43F699232380F8BDF2
:103CB40085E9002088E900207CEC002088EC0020C5
:103CC40058ED002064ED00200023038047F25D607E
:103CD400704700BFF0B50E490E4A0F4B0F681668C7
:103CE4001B688BB000240D4D0B213E2208900193DC
:103CF4000791009203970296069405940494234630
:103D0400074A084908482C6003F07EF90BB0F0BD5F
:103D140024610108286101082C61010840EF00209A
:103D2400AD3900083466010858EE0020F8B50546A0
:103D340000F0A6FD484B49491B68494CA1FB0313FD
:103D440048484949DB082360002303700B70474F40
:103D5400474E484C48484949494A3B7033602360C0
:103D640003700B70474F484E484C49484949126804
:103D74003B703360236003600B7032B146490968BD
:103D840019B1013A41F8043BFBD1444A444B0024A5
:103D9400444914601C60444A444B4548454F464ED0
:103DA4000C6014601C703C603460046001F0E6FC3C
:103DB4002246424B03F53D711A8043F8082C43F820
:103DC400042C0C338B42F7D1284601F00FF82B88D2
:103DD40003B1F8BD284601F0BBF92B88002BF8D1BC
:103DE400284601F0C1F92B88002BF2D1284601F0B6
:103DF400B9FC2B88002BECD1284601F06FFF2B88EF
:103E0400002BE6D1284602F06FFA2B88002BE0D174
:103E1400284603F08BF82B88002BDAD12846FFF7CD
:103E240059FF2B88002BD4D1284603F043FC2B8860
:103E3400002BCED1284602F0B5FC2B88002BC8D12C
:103E4400284604F071F82B88002BC2D100F0FAFD4B
:103E5400BDE8F840FFF7A6BDCC600108CDCCCCCCC2
:103E640028EF002084ED002085E9002074E900207B
:103E740058ED002064ED002088EC00207CEC00204C
:103E8400FC60010860ED002054ED002054EF002098
:103E940068ED002030F000200061010884EC00206F
:103EA40074ED002038EF002078ED002084E9002034
:103EB40048EF002078E900202CEF002090E9002052
:103EC4000163C287BAB1013A92B2023201EB4212E3
:103ED4000023203141F81C3C41F8203C41F8103CBF
:103EE40041F80C3C21F8083C41F8043C41F8180C1A
:103EF40020319142EED1704738B1836842689B68A3
:103F0400C1F8C0201B6AC361704791F83430022B9A
:103F140005D0072B07D1064BC1F8C0307047054BBD
:103F2400C1F8C0307047044BC1F8C030704700BFBF
:103F34005066010848660108F0820108054A836852
:103F4400C1F8C0201BB19B681B6AC3617047C26182
:103F5400704700BFF08201080023036043600381BF
:103F6400704700BF03890268013310B49BB2002478
:103F740003814A600C6002B11160012B016008BF2B
:103F8400416010BC704700BF0289BAB110B4036825
:103F94008C68013294F83740028113B915E05B68EC
:103FA4009BB19A6892F83720A242F8D91A68A2B154
:103FB40081E80C005160196010BC70470123038133
:103FC4004A600A60016041607047436800220B60E8
:103FD4004A6010BC596041607047196081E80C0068
:103FE4000160E9E7F8B5C38F80F83710046B0BB3B1
:103FF4005D1EADB2023504EB45150027203454F89C
:10400400140CA4F12001038A012B10D954F8202C9C
:1040140054F81C6C7AB1566086B13260013B03825D
:1040240044F81C7C44F8207C0830FFF7ADFF2034B2
:10403400AC42E4D1F8BD32608660EFE7C260EDE7E0
:10404400C28F036B5AB3F0B4571EBFB2023703EBEF
:1040540047170025203310E053F8204C53F81C6C0C
:104064009CB16660A6B13460013A0A82203343F8F9
:104074003C5C43F8405CBB420CD053F8141C0A8AE5
:10408400012AE9D18D60CD60EEE734608E60EBE704
:10409400CC60E9E70023C3870363F0BC70470023C7
:1040A400C3870363704700BF038910B4012B0CD08E
:1040B40091E814006AB1546074B122600022013B9B
:1040C400038110BC4A600A607047002202604260AB
:1040D400F4E722600460F1E74260EFE710B4CC8FAC
:1040E4000B6B74B1D96888420DD0013CA4B2013481
:1040F40003EB441402E0D968814204D02033A34284
:10410400F9D110BC70471861DA6110BC704700BF68
:10411400FFF7E4BF30B4CC8F096B74B1CD68A8420B
:104124000DD0651EADB2013501EB451502E0CC683A
:10413400844204D02031A942F9D130BC70470B83AA
:10414400029B08614A61CB6130BC7047064B002278
:1041540003F53D711A8043F8082C43F8042C0C3302
:104164008B42F7D1704700BF90E9002070B5044638
:1041740090F8370001F01EFB194A94F83730127892
:104184009A4216D003EB430316499B00C8180289D0
:1041940042B1CD58013200260281E56026612C61CE
:1041A400CC5070BD01250581E2602261CC50446091
:1041B40070BD02EB42020B4892008318198931B991
:1041C40001251D81E160216184505C6070BD5A68E5
:1041D4000131002019812261E060D4605C6070BD0F
:1041E40088EC002088E9002090F837300C4903EB74
:1041F40043039B0070B4CC1822894AB1CD580026E1
:1042040001322281C56006612861C85070BC7047C4
:1042140001252581C26002616060C85070BC70478E
:1042240088E9002090F8373030B403EB43030B4C9B
:104234009B00E218118949B15368002401311181AE
:10424400C460036130BCD86050607047012515819B
:10425400C1600161E050506030BC704788E90020C3
:104264000389012B0DD9022B0CD003684168DA684D
:1042740010B400241461DC601961CB6080E80C0088
:1042840010BC70470368426800211A61D96011614B
:10429400D36080E80C0070472DE9F843244D2B7857
:1042A40083B9244E337843B9234B1B78012B0ED0AA
:1042B40046F67B130380BDE8F88346F66353038018
:1042C400BDE8F88348F2D1430380BDE8F88304468F
:1042D400FDF74EFA194BDFF86C801B78814603EB2F
:1042E40043039F0007EB08031A89012A16D91846CD
:1042F400FFF7B6FF58F807305A6D5AB19A65484629
:10430400FDF73AFA2B780BB9337873B10023238085
:10431400BDE8F8830A4A12689A65F0E7FDF72CFABB
:1043240046F67A132380BDE8F883FFF751FBEDE7E7
:1043340084ED002074E9002030F0002088EC002097
:1043440028EF002088E9002070B504460169E2687E
:1043540090F8370071B1154B00EB400003EB80007F
:104364000389013B0381CA609AB11161002323616F
:10437400E36070BD7AB10D4D00EB400080002E1853
:104384003389013B3381002311612A502361E360A7
:1043940070BD4160EAE7054D00EB40039B00E9185E
:1043A400EA500A814A6001F017FADFE788E9002041
:1043B40008B5054B1B78012B00D008BDFCF7E4FBC6
:1043C400024B186008BD00BF74E9002054ED0020C2
:1043D400024B1B7803B17047FFF730BB74E9002030
:1043E40038B5154B1B78012B00D038BD0446FDF7BA
:1043F400BFF923680546BBB1104A934214D09A6DA5
:1044040012B1013A9A657AB92389012B0BD90C4B65
:104414001B7843B92046FFF723FF23685A6D3AB946
:10442400084A12689A652846BDE83840FDF7A4B9E1
:104434009A652846F8E700BF30F0002058EE0020C7
:1044440074E9002028EF002010B5044682B039B981
:10445400022384F836302046FFF776FF02B010BD01
:104464000DF10603022203F09DF9BDF80630002B7E
:10447400EED1032384F836302046FFF765FF02B0FF
:1044840010BD00BF2DE9F0410E46DFF890800025F5
:10449400D8F800701946044687F8342087F8355058
:1044A4003846FFF7D1FFD8F80030D6B10122E660D4
:1044B4002146DA871C6306F10800A3606560256065
:1044C400256165612583E561FFF75EFDB368D8F872
:1044D40000209B6871681B6AC2F8C010F361BDE8D4
:1044E400F08193F83420DE87022A1E6306D0072A5F
:1044F40009D1074AC3F8C020BDE8F081054AC3F8D2
:10450400C020BDE8F081044AC3F8C020BDE8F081B2
:104514005066010848660108F082010858ED002041
:1045240010B5044603F0C4F994F836305B0700D59F
:1045340010BD2046BDE81040FFF718BE38B591F80D
:1045440036300C46023B052B1DD8DFE803F01D1D59
:104554001C1C030394F83430032B43D0002322643F
:10456400E365A4F8603010B12046FFF769FD2046EA
:1045740003F09EF904210122002384F8361084F804
:10458400352084F8343038BD94F83430032B14D0FB
:1045940000232264E365A4F8603010B12046FFF7DD
:1045A4004FFD2046FFF7BCFF0023012284F836307C
:1045B40084F8343084F8352038BDE18F236B00292A
:1045C400E6D0DD68A8420AD04D1EADB2013503EB3A
:1045D40045152033AB42DBD0D9688842F9D1186144
:1045E400DA61D5E7E18F236B0029B7D0DD68A842F3
:1045F4000AD04D1EADB2013503EB45152033AB4255
:10460400ACD0D9688842F9D11861DA61A6E700BF55
:1046140038B591F836300C46023B052B1BD8DFE841
:1046240003F01B1B1A1A030394F83430032B3FD0F6
:10463400002522642046E565A4F8605003F038F9AB
:104644002046FFF7FDFC0422022384F8345084F84A
:10465400362084F8353038BD94F83430032B12D02A
:10466400002522642046E565A4F86050FFF7E8FCC5
:104674002046FFF755FF022384F8365084F834505F
:1046840084F8353038BDE18F236B0029E8D0DD682C
:10469400A8420AD04D1EADB2013503EB45152033B7
:1046A400AB42DDD0D9688842F9D11861DA61D7E725
:1046B400E18F236B0029BBD0DD68A8420AD04D1ED0
:1046C400ADB2013503EB45152033AB42B0D0D96808
:1046D4008842F9D11861DA61AAE700BF70B50C46C7
:1046E40091F8361005460239052922D8DFE801F091
:1046F40022222121030394F83410032953D0A4F86F
:104704006030049BE2652364204603F0D1F845B190
:104714002046FFF795FC344AAB68C4F8C02053BB6D
:10472400EA610023042284F8362084F8353084F8C2
:10473400343070BD94F83410032920D0A4F86030CC
:10474400049BE26523645DB12046FFF779FC264AA9
:10475400AB68C4F8C020002B43D09B681B6AEB6194
:104764002046FFF7DDFE002384F8363084F8353028
:1047740084F8343070BD9B681B6AEB61D1E7E08F2D
:10478400216B0028DFD0CE68B54224D0461EB6B2D5
:10479400013601EB461602E0C86885421BD0203181
:1047A400B142F9D1CFE7E08F216B0028ACD0CE68BD
:1047B400B5420AD0461EB6B2013601EB4616203188
:1047C400B142A1D0C8688542F9D10B83049B0D6125
:1047D4004A61CB6198E70B83049B0D614A61CB610D
:1047E400B1E7EA61BCE700BFF08201081848FF2185
:1047F4000170002080F309881648016881F3088855
:1048040015484FF08051016062B6FEE772B6EFF3CF
:10481400098028B1203880E8F00F10490968086041
:1048240000B50F4880475DF804EB0E480E490A783E
:1048340002700A480D490A680260106890E8F00F97
:10484400203080F309884EF0040E62B670470000F1
:1048540022ED00E068E9002004ED00E058ED0020BE
:104864008949000888EC00207CEC002064ED0020DD
:10487400024B1B6803B11847704700BF2CEF0020A0
:104884000C4A0D4B116810B41C6881B10023184602
:10489400224601338B4242F8040BFAD103F18043E0
:1048A400013B9B00054A2344136010BC70476FF022
:1048B4000303F7E7FC6001080061010868E90020D0
:1048C400024B1B6803B11847704700BF48EF002034
:1048D400024B1B6803B11847704700BF84EC0020EB
:1048E400024B1B6803B11847704700BF74ED0020EA
:1048F400024B1B6803B11847704700BF78E90020DA
:10490400F0B5059C1E4F02EB8402144642F8080CD5
:1049140042F81C3C42F8201C4FF012364FF003358D
:104924004FF002304FF011314FF0103342F80C7C4D
:1049340042F8106C42F8145C42F8180C42F8241C3B
:1049440042F8283C4FF0807E4FF009374FF008368C
:104954004FF007354FF006304FF005314FF0043378
:1049640042F8380C42F804EC42F82C7C42F8306CE3
:1049740042F8345C42F83C1C44F8403D2046F0BD0B
:10498400A974000838B5114B1B6803B19847FCF7AC
:10499400FBF80F4B0F4A1B681468A34209D0D3F8E5
:1049A4009820D3F89C10821A1144C3F89420C3F8B9
:1049B4009C10094AD3F8B4501168C4F898008D4289
:1049C40038BFC3F8B4100023136038BD38EF00209B
:1049D40058ED002064ED002068ED0020024B1B68B8
:1049E40003B11847704700BF78ED002008B5FCF705
:1049F400BFFE064A137801331370FCF7BDFE03F0C3
:104A040035F9BDE80840FFF741B800BF84ED002048
:104A14000A4B0B49013818600A6822F07F420A6089
:104A240053F8042C42F0050243F8042C53F8042CE8
:104A340042F0020243F8042C704700BF14E000E087
:104A440020ED00E0704700BF2DE9F843194C2678AB
:104A54002EBB48B3044690460D461F46FCF788FE1D
:104A6400154B814623606560C4F82080666204F1BA
:104A74000800FFF771FA1149114A0B686661E26197
:104A8400A36103B15C610F4A484613880C6001338B
:104A94001380FCF771FE00233B80BDE8F88342F6E7
:104AA400E1621A80BDE8F88345F6C3521A80BDE876
:104AB400F88300BF84ED0020464C414750EF0020AE
:104AC400F08201084CEF00202DE9F04FA54C89B08D
:104AD4002778A7BB00287ED0B3F5847F0FD01AD9DE
:104AE40048F20805AB420AD038D948F20415AB4263
:104AF40005D075D8A3F50145013D012D17D89A4D70
:104B04000668AE4236D045F6C453139A002013808B
:104B140009B0BDE8F08F082BF1D018D9B3F5807F28
:104B240005D9B3F5817FEAD9B3F5827FE7D045F69D
:104B34002563139A0020138009B0BDE8F08F46F274
:104B4400AE13139A0020138009B0BDE8F08F002B38
:104B5400EDD0022BD3D9042BD1D0E8E7B3F5004F25
:104B6400E5D948F20205AB42C9D948F20405AB4283
:104B7400C5D0DCE7129C03F48077BFB20CB10025EA
:104B8400256003F00F081C4616460D468146FCF7C7
:104B9400EFFDB8F1040F82462AD0B8F1080F24D1F2
:104BA400D9F8203015EA030B00F09080002F40F074
:104BB400B0806E4B1B68C3F884B0129B1BB1D9F84C
:104BC4002430129A13605046FCF7D6FD139A002342
:104BD40058461380B8E745F6C353139A1380B3E7D6
:104BE40048F20815AB428AD0A1E7FCF7C5FD9EE761
:104BF400D9F8203035EA030276D0220400F19A80F5
:104C04005B4B197800297CD1DFF860B13346DBF8BF
:104C140000000122C0F88410C0F880504946A0F872
:104C240088406846FFF72EFC5046FCF7A5FDFEF7CA
:104C340079FFFCF79DFDDBF8003093F83520032A5B
:104C44006CD8DFE802F0251A0F02129B13B1129AF6
:104C540000231360FCF790FD47F2D923139A1380C5
:104C6400002071E7129A0AB11B6C1360FCF784FDF3
:104C740045F6C253139A1380F2E7129A0AB11B6CD9
:104C84001360FCF779FD46F2A913139A1380E7E742
:104C9400129A12B11A6C12990A60D3F88450139BB9
:104CA40000261E805FB1B8F1040F02D0B8F1080FDE
:104CB40050D1D9F8203023EA0503C9F82030FCF795
:104CC4005BFD139A0023284613803DE7230439D45F
:104CD400274B1978002997D0FCF74EFD46F663530D
:104CE400139A584613802FE7FFB9204B1B68C3F86B
:104CF4008450129B1BB1D9F82430129A1360504689
:104D0400DDE7FCF739FD46F66353139A0020138060
:104D14001AE723EA0B03C9F820304AE7FCF72CFD15
:104D240046F62E63139A13809AE723EA0503C9F81B
:104D34002030DAE7FCF720FD46F2B013139A002086
:104D4400138001E7FCF718FD46F2B013139A584696
:104D54001380F9E6FCF710FD45F62563139A3046F7
:104D64001380F1E684ED0020464C414758ED0020C5
:104D740074E9002070B50B4B1E782EB146F2AE12CA
:104D840000230280184670BD0546FCF7F1FC064B73
:104D94001B68D3F88440FCF7EFFC23462E801846AA
:104DA40070BD00BF84ED002058ED002070B4074CA6
:104DB400039D24680026C4F88020A4F88830C4F831
:104DC40084602B4670BC0122FFF75CBB58ED0020C9
:104DD4000449054A002380E8060003620830FFF70F
:104DE400BBB800BF4E4F4E455C6601080349044AF8
:104DF40000230B6013800380704700BF50EF002036
:104E04004CEF0020064A10B41368064C0021C4611C
:104E14004161836103B15861106010BC704700BFE9
:104E240050EF0020F08201084269836932B163B116
:104E3400002193615A6181614161704704490B60AB
:104E440003B15A61002383617047936143617047E2
:104E540050EF002010B5044690F836300020023B95
:104E6400C4F88410226484F8350084F83400052BD7
:104E740007D8DFE803F00B0B06060303042384F8CA
:104E840036302046BDE81040FFF7DAB82046FFF779
:104E940047FB002384F836302046BDE81040FFF776
:104EA400CFB800BF2DE9F041164605460C461F4613
:104EB400FCF75EFC012E804610D052D3B6F5004FAD
:104EC4004FD048F201039E4208D0FCF755FC45F64A
:104ED4002563069A00201380BDE8F081296A6F6279
:104EE40021EA04012C8A2962002C41D0AC68A06814
:104EF40078B1B0F88830646803F00F03042B24D031
:104F0400082B18D12B6AD0F88010194023D1002C1B
:104F1400EDD14046FCF730FC330401D4FEF702FE29
:104F2400FCF726FC2C6AFCF727FC069A0023204693
:104F34001380BDE8F0814046FCF71EFC43F6FF23D6
:104F4400069A00201380BDE8F081D0F880102B6A07
:104F540031EA0303DBD13A46FFF77CFF002CC6D1CC
:104F6400D7E7296A6F620C432C622C8A002CBDD1CE
:104F74004046FCF701FC069B286A1C80BDE8F081D2
:104F840030B3F0B5012A83B009D9A2F50044012C4D
:104F940005D945F6256200201A8003B0F0BD0E4CF9
:104FA4000568A54205D045F6C45200201A8003B016
:104FB400F0BD1E46044615460F46FBF7E5FD009678
:104FC40003462A4639462046FFF76CFF03B0F0BD7E
:104FD40045F6C3521A807047464C41472DE9F843C1
:104FE400304CBDF820602478002C42D1002A4CD0EB
:104FF400012B50D9032E42D9940746D116F003044D
:105004003DD1154603F1FF3C1FFA8CFC01341FFA15
:1050140084FEAF19F4452F603D46F7D80546904607
:105024001C460F46023B9BB203FB06634FF000098C
:1050340042F80390FCF79CFB1B491C4A0B68C5F81B
:105044001890AF60C5F80480C5F80C80AC826C82FF
:105054002E822A60EB6103B19D61154A0D601388AD
:1050640001331380FCF788FB099A00231380BDE801
:10507400F88345F2B963099A1380BDE8F88345F2D1
:10508400C163099A1380BDE8F88345F2BB63099AAA
:105094001380BDE8F88345F2BC63099A1380BDE828
:1050A400F88300BF84ED002024EF00204D454D20FF
:1050B4005AEF0020F8B5B8B104460F46FCF758FB88
:1050C400A58A55B1E6686B1E3268A382E260FCF7DC
:1050D40053FB002330463B80F8BDFCF74DFB45F203
:1050E400C26328463B80F8BD45F2BF630B80F8BD20
:1050F400F0B1C9B170B5044616460D46FCF738FB4D
:10510400A38A628A9A4209D9E26801332A60A38297
:10511400E560FCF731FB0023338070BDFCF72CFB0A
:1051240045F2BA63338070BD45F2BE6313807047A5
:1051340045F2BF6313807047044A002113688161FC
:10514400C36103B198611060704700BF24EF002071
:105154000349044A00230B6013800380704700BF97
:1051640024EF00205AEF00201B4B70B41D6865B378
:105174001A4B1E8826B3012E05F110032AD0B41E43
:10518400A4B2A11C05EB0111002243F80C2C23F856
:10519400082C43F8042C43F8103C10338B42F4D110
:1051A400631C05EB03130E4900221A605A601A812E
:1051B4000D608E80DA60CA800A8170BC02807047FC
:1051C40045F21D7370BC0380704745F21E7370BCBA
:1051D400038070472B46E6E7EC600108F4600108A1
:1051E4004CEE00200346408990B10A4AF0B4196895
:1051F400D588948816685F682D1A0E6004440021CF
:10520400D580948017605981998119605960F0BCE8
:10521400704700BF4CEE002000230181438183814D
:1052240003604360704700BFF0B44489F4B144683C
:10523400268965680E800AB1E168116022684260BF
:105244008AB14289013A42810D4A28469588D1881B
:105254001668002701350139266095801460D180D5
:105264001F80F0BC704702604281EDE70C8002B100
:10527400146046F29252F0BC00201A80704700BFBE
:105284004CEE0020F0B545890489AC4234D9224C57
:10529400B4F804E0BEF1000F29D02668B4F806C0C3
:1052A40037680EF1FF3E2760A4F804E00CF1010713
:1052B400B4F808E0BFB2BE45E78038BF278105B324
:1052C40003F010039BB213BB0468266006603360CE
:1052D4000135ABB2438184899C4238BF83813281DA
:1052E400059A0023F260069A71601380F0BD45F2BE
:1052F4001D73069A1380F0BD46F29353069A1380E9
:10530400F0BD01230660466043813560E3E74368EE
:1053140033604660DCE700BF4CEE00202DE9F0412D
:105324001A4B1E7846BB60B304460D461746FCF77D
:105334001FFA174A3F23226084F8243080466560B0
:10534400266284F82560A66204F10800FEF704FED4
:105354001049114A0B686661E261A36103B15C61A3
:105364000E4A404613880C6001331380FCF704FA9C
:1053740000233B80BDE8F08142F6E1631380BDE881
:10538400F08145F6C3531380BDE8F08184ED00201D
:105394004D55545834F00020F08201085CEF002091
:1053A4002DE9F043824C8BB0247834B146F2AE132D
:1053B400129A13800BB0BDE8F083A8B14AB1B2F5DC
:1053C400004F06D045F62563129A13800BB0BDE852
:1053D400F083784C0568A5420BD045F6C453129A65
:1053E40013800BB0BDE8F08345F6C353129A1380C3
:1053F400E0E71F4615460E460446002B47D000231F
:105404003B60FCF7B5F994F82530804663B3DFF8C8
:10541400AC91226AD9F80010914200F0AE802B04BE
:1054240000F1B180644B1B78002B40F08B8091F825
:10543400371092F837308B424CD992F83630072B1C
:105444000AD80120984010F0CC0F40F0AC8010F046
:10545400320F40F0A08063B34046FCF78DF946F666
:105464002D63129A1380A5E7544BA26A1B6801218D
:10547400236293F8373084F8251084F824303A6096
:105484004046FCF779F9129A0023138092E7FCF75F
:105494006FF994F825308046002B5BD1474B0122ED
:1054A4001B68236293F8373084F8252084F824306D
:1054B400E6E710460192FEF747FFD9F80030019A5B
:1054C40093F8370082F8370000F074F9019A104617
:1054D400FEF78AFE33460422214602A8FEF7D2FFD5
:1054E4004046FCF749F9FEF71DFBFCF741F9D9F8F2
:1054F400002092F83530032B50D8DFE803F01C1459
:105504000C020FB100233B6047F2D923129A138097
:10551400FCF732F94EE70FB1136C3B6045F6C2530A
:10552400129A1380F4E70FB1136C3B6046F2A9138F
:10553400129A1380ECE70FB1136C3B60129A0023AC
:105544001380E5E74046FCF717F946F66353129AD1
:1055540013802FE7DFF86490226AD9F800108A429A
:105564007FF45DAF013384F825304046FCF704F93D
:1055740045F28273129A13801CE7A26A013384F8FD
:1055840025303A60F1E74046FCF7F6F846F2B013EE
:10559400129A13800EE782F837109BE746F62E63C3
:1055A400129A1380B4E71046FEF71CFD92E700BF81
:1055B40084ED00204D55545874E9002058ED002026
:1055C4002DE9F047444B82B01B78A3B950B341B1E5
:1055D400B1F5004F05D045F62563138002B0BDE850
:1055E400F0873E4B04689C420BD045F6C4531380AD
:1055F40002B0BDE8F08746F20E23138002B0BDE886
:10560400F087044615460E46FCF7B2F8344F226A7A
:105614003B6880469A4209D0FCF7AEF845F28173A4
:105624002B80DBE745F6C3531380D7E7FBF7ACFACF
:1056340094F825308146013BDBB2A06284F8253022
:10564400002B38D1B4F810A0BAF1000F3AD0386862
:1056540094F8243090F837209A4211D0FEF774FE63
:1056640094F824203B68104683F8372000F0A2F811
:105674003868FEF7D7FD3A681A4B92F837201A704B
:10568400A368012299682046216291F8373084F892
:1056940024300023CDF8009084F825201A46FFF723
:1056A4001DF84046FCF768F8330401D4FEF73AFAD3
:1056B40000232B8092E74046FCF75EF845F28373A3
:1056C4002B808BE7C4F820A084F825A04046FCF783
:1056D40053F8A5F800A081E784ED00204D555458F7
:1056E40058ED002088EC002010B40023074C084932
:1056F4003F2280F8242080F8253004604160036252
:10570400836210BC0830FEF727BC00BF4E4F4E45E5
:1057140064660108064A10B41368064C0021C4618B
:105724004161836103B15861106010BC704700BFD0
:1057340034F00020F08201084269836932B163B118
:10574400002193615A6181614161704704490B6092
:1057540003B15A61002383617047936143617047C9
:1057640034F000200349044A00230B6013800380B3
:10577400704700BF34F000205CEF0020024B002291
:105784001A605A60704700BF6CE90020084B10B5DE
:10579400186858B9044653F8040F2034E4B20028BA
:1057A400F9D0FBF7F0FF2044C0B210BD0024F8E7A5
:1057B4006CE9002010B4074C00F01F02400954F8B3
:1057C4002030C2F11F0101228A40134344F82030E3
:1057D40010BC70476CE9002010B4084C00F01F02A4
:1057E400400954F82030C2F11F0101228A4023EA03
:1057F400020344F8203010BC704700BF6CE900205D
:105804002DE9F8431E4D2F78002F2FD1002832D0D8
:1058140022B946F294521A80BDE8F883044615462C
:1058240088461E46FBF7A4FF164B29462360814693
:10583400C4F8048004F12000FFF7EEFC04F1080032
:10584400FEF78AFB1049114A0B686761E261A361A4
:1058540003B15C610E4A484613880C60013313801F
:10586400FBF78AFF00233380BDE8F88342F6E16248
:105874001A80BDE8F88345F6C3521A80BDE8F88360
:1058840084ED0020515545551CEF0020F08201089D
:105894005CED0020F8B5134B1D784DB9E8B1124BFF
:1058A40002689A4209D045F6C45328460B80F8BDD5
:1058B4004FF46C530B800020F8BD0E460446FBF7F2
:1058C40057FF074604F12000FFF78CFC04463846D6
:1058D400FBF752FF20463580F8BD45F6C3530B80D5
:1058E400F8BD00BF84ED0020515545552DE9F04F1A
:1058F400594C89B02478129F139E002C40F0838069
:10590400002800F09780002B00F0988012B1B2F5C7
:10591400004F6CD1514C0568A5426DD10FB10024E4
:105924003C60984691468A460446FBF721FF33467D
:1059340083463A46414604F12000FFF775FC33885C
:105944000546EBB119F4004F7DD1454B1B78002B74
:1059540068D15346052221466846FEF793FD584612
:10596400FBF70AFFFEF7DEF8FBF702FF3D4B1A6870
:1059740092F83530032B4DD8DFE803F02E231809B5
:105984005846FBF7F9FE284609B0BDE8F08F00231E
:10599400A8F8003007B13B6047F2D92300243380D4
:1059A400FBF7EAFE204609B0BDE8F08F0023A8F813
:1059B40000300FB1136C3B6045F6C25300243380B2
:1059C400EEE70023A8F800300FB1136C3B6046F2F9
:1059D400A91300243380E3E7B2F86030D46DA8F84B
:1059E40000300FB1136C3B6000233380D8E745F6D9
:1059F400256320463380C7E745F6C453002033802F
:105A040009B0BDE8F08F46F2AE130020338009B030
:105A1400BDE8F08F46F62E620023A8F800301C463D
:105A24003280BDE75846FBF7A7FE46F663530020D5
:105A34003380A9E745F6C3533380A5E746F2D52260
:105A440018463280A0E75846FBF796FE46F2B0139C
:105A54000020338098E700BF84ED00205155455560
:105A640074E9002058ED00202DE9F8432E4B1B78F3
:105A7400FBB900284DD0B1F5807F0FD00CD9B1F51A
:105A8400004F0BD0B1F5014F08D045F62563002433
:105A940013802046BDE8F8830029F6D1234B04681F
:105AA4009C420DD045F6C453002413802046BDE823
:105AB400F88346F2AA13002413802046BDE8F88335
:105AC400804617460E46FBF753FEB8F81040814651
